:100000000C942A000C9447000C9447000C94470071
:100010000C9447000C948C010C9447000C944700FE
:100020000C9447000C945C010C9447000C942C0138
:100030000C9447000C9447000C9447000C94470024
:100040000C9447000C9447000C9447000C94470014
:100050000C94470011241FBECFE5D8E0DEBFCDBF12
:1000600010E0A0E6B0E0E6E5F6E002C005900D92F3
:10007000A036B107D9F720E0A0E6B0E001C01D929C
:10008000A237B207E1F70E9449000C9429030C94AF
:100090000000ECE6F0E081E0808382E08183CF0124
:1000A0000E947B006AE670E080E00E94AA006091F6
:1000B0006A0070916B0080E090E00E942E02209117
:1000C0006E0030916F0040917000509171000E945D
:1000D000BC02609366007093670080936800909301
:1000E00069002FEF84E39CE0215080409040E1F7CD
:1000F00000C00000D7CF009759F1FC012181206892
:1001000026B980818295880F880F807C87B981E02D
:1001100090E062E070E003C0660F771F01968A30BE
:100120009105D4F380E090E00E942E029B01AC0187
:1001300060E070E080EA90E40E94BC0160936E0091
:1001400070936F00809370009093710080E0089529
:1001500084E008950F931F93CF938830E0F56115E5
:100160007105D9F18B01C82F4AB381E090E09C0161
:100170000C2E02C0220F331F0A94E2F7842F90E066
:10018000822393230C2E02C0969587950A94E2F75A
:10019000892B29F040E06C2F80E00E94F200369914
:1001A000FECF87B1887F8C2B87B986B1806486B9F2
:1001B0008FE19EE40197F1F700C00000349BFECF71
:1001C00024B185B190E0982F8827822BF801918384
:1001D000808380E003C084E001C084E0CF911F9160
:1001E0000F9108956830A0F581110BC08AB350E0DB
:1001F00002C0440F551F6A95E2F7482B4ABB80E0C6
:100200000895813059F487B350E002C0440F551F60
:100210006A95E2F7482B47BB80E00895823059F495
:1002200084B350E002C0440F551F6A95E2F7482B93
:1002300044BB80E00895833069F481B350E002C08C
:10024000440F551F6A95E2F7482B41BB80E00895A3
:1002500081E0089582E008951F920F920FB60F92E9
:1002600011242F933F934F935F936F937F938F93BB
:100270009F93AF93BF93EF93FF938091640090910E
:100280006500892B41F088B78E7F88BFE0916400BC
:10029000F09165000995FF91EF91BF91AF919F910A
:1002A0008F917F916F915F914F913F912F910F901F
:1002B0000FBE0F901F9018951F920F920FB60F92BE
:1002C00011242F933F934F935F936F937F938F935B
:1002D0009F93AF93BF93EF93FF93809162009091B0
:1002E0006300892B41F088B78B7F88BFE091620063
:1002F000F09163000995FF91EF91BF91AF919F91AC
:100300008F917F916F915F914F913F912F910F90BE
:100310000FBE0F901F9018951F920F920FB60F925D
:1003200011242F933F934F935F936F937F938F93FA
:100330009F93AF93BF93EF93FF9380916000909151
:100340006100892B41F088B78F7B88BFE091600006
:10035000F09161000995FF91EF91BF91AF919F914D
:100360008F917F916F915F914F913F912F910F905E
:100370000FBE0F901F9018950E94D0010C9482021E
:100380000E947B0258F00E94740240F029F45F3F03
:1003900029F00C946B0251110C94B6020C9471026A
:1003A0000E94930268F39923B1F3552391F3951BAF
:1003B000550BBB27AA2762177307840738F09F5F86
:1003C0005F4F220F331F441FAA1FA9F335D00E2EF3
:1003D0003AF0E0E832D091505040E695001CCAF760
:1003E0002BD0FE2F29D0660F771F881FBB1F261723
:1003F00037074807AB07B0E809F0BB0B802DBF01FA
:10040000FF2793585F4F3AF09E3F510578F00C94C8
:100410006B020C94B6025F3FE4F3983ED4F38695EA
:1004200077956795B795F7959F5FC9F7880F911DE9
:100430009695879597F90895E1E0660F771F881FD5
:10044000BB1F621773078407BA0720F0621B730B88
:10045000840BBA0BEE1F88F7E0950895E89409C065
:1004600097FB3EF490958095709561957F4F8F4FE7
:100470009F4F9923A9F0F92F96E9BB279395F695FD
:10048000879577956795B795F111F8CFFAF4BB0F7B
:1004900011F460FF1BC06F5F7F4F8F4F9F4F16C0DF
:1004A000882311F096E911C0772321F09EE8872F69
:1004B000762F05C0662371F096E8862F70E060E025
:1004C0002AF09A95660F771F881FDAF7880F96959E
:1004D000879597F9089597F99F6780E870E060E045
:1004E00008959FEF80EC089500240A9416161706CD
:1004F00018060906089500240A9412161306140615
:1005000005060895092E0394000C11F4882352F077
:10051000BB0F40F4BF2B11F460FF04C06F5F7F4F2F
:100520008F4F9F4F089557FD9058440F551F59F016
:100530005F3F71F04795880F97FB991F61F09F3FD0
:1005400079F087950895121613061406551FF2CFF9
:100550004695F1DF08C0161617061806991FF1CF49
:1005600086957105610508940895E894BB27662770
:100570007727CB0197F908950E94CF020C9482024D
:100580000E94740238F00E947B0220F0952311F043
:100590000C946B020C94710211240C94B6020E940C
:1005A000930270F3959FC1F3950F50E0551F629F22
:1005B000F001729FBB27F00DB11D639FAA27F00DBC
:1005C000B11DAA1F649F6627B00DA11D661F829FE3
:1005D0002227B00DA11D621F739FB00DA11D621FC8
:1005E000839FA00D611D221F749F3327A00D611DE5
:1005F000231F849F600D211D822F762F6A2F1124C7
:100600009F5750409AF0F1F088234AF0EE0FFF1FF9
:10061000BB1F661F771F881F91505040A9F79E3F50
:10062000510580F00C946B020C94B6025F3FE4F32A
:10063000983ED4F3869577956795B795F795E795A6
:100640009F5FC1F7FE2B880F911D9695879597F9AF
:060650000895F894FFCFAD
:00000001FF
